:100000000C9434000C943E000C943E000C943E0082
:100010000C943E000C943E000C943E000C943E0068
:100020000C943E000C943E000C943E000C943E0058
:100030000C943E000C943E000C943E000C943E0048
:100040000C943E000C943E000C943E000C943E0038
:100050000C943E000C943E000C943E000C943E0028
:100060000C943E000C943E0011241FBECFEFD8E04C
:10007000DEBFCDBF0E9485000C943E010C940000B1
:10008000E82FF92F80818F5F8A30F0F4808381819F
:10009000863020F0118282818F5F828382818A3054
:1000A00020F0128283818F5F83838381863020F0EA
:1000B000138284818F5F848384818A3050F014821C
:1000C00085818F5F85830895108281818F5F818311
:1000D000DECF9581923009F008958430E9F71482DB
:1000E000158208959093C5008093C40088E18093A1
:1000F000C1008EE08093C2000895E0ECF0E09081B2
:1001000095FFFDCF8093C6000895CF93DF9300D075
:1001100000D000D00F92CDB7DEB71F8287E690E007
:100120000E947200CC24C3940F2EF5E0DF2EF02D38
:100130000F2EF3E0EF2EF02D6894FF24F2F800E08C
:1001400010E04AE0BE01695F7F4F8C2D90E00E9475
:1001500009018F810E947D004AE0BE01695F7F4FE7
:100160008D2D90E00E9409018F810E947D008AE31D
:100170000E947D004AE0BE01695F7F4F8E2D90E0B6
:100180000E9409018F810E947D004AE0BE01695FE3
:100190007F4F8F2D90E00E9409018F810E947D008A
:1001A0008AE30E947D004AE0BE01695F7F4F802F95
:1001B00090E00E9409018F810E947D004AE0BE010B
:1001C000695F7F4F812F90E00E9409018F810E941B
:1001D0007D008AE00E947D008DE00E947D001983F1
:1001E0000A83FB82EC82DD82CE82CE0101960E94E0
:1001F000400019810A81FB80EC80DD80CE802FEFEA
:1002000089E698E1215080409040E1F700C000006D
:1002100098CFBB274A3031F4992322F4BDE2909560
:1002200081959F4F0C941501BB27FB015527AA27E9
:10023000880F991FAA1FA41710F0A41B8395505173
:10024000B9F7A05DAA3308F0A95DA193009779F7EB
:10025000B111B1931192CB010C942E01DC01FC0180
:10026000672F71917723E1F7329704C07C916D93EA
:1002700070836291AE17BF07C8F30895F894FFCF5B
:00000001FF
