:100000000C9434000C943E000C943E000C943E0082
:100010000C943E000C943E000C943E000C943E0068
:100020000C943E000C943E000C943E000C943E0058
:100030000C943E000C943E000C943E000C943E0048
:100040000C943E000C943E000C943E000C943E0038
:100050000C943E000C943E000C943E000C943E0028
:100060000C943E000C943E0011241FBECFEFD8E04C
:10007000DEBFCDBF0E9440000C9459000C940000DC
:10008000CF93DF93CDB7DEB70E944C0088E290E0BB
:1000900021E0FC012083FACFCF93DF93CDB7DEB709
:1000A00087E290E021E0FC0120830000DF91CF9106
:0600B0000895F894FFCF53
:00000001FF
